:020000040800F2
:1000000000280020650A0008090A00080F0A0008F5
:10001000150A00081B0A0008210A00080000000059
:10002000000000000000000000000000270A000897
:10003000330A0008000000003F0A00084B0A0008CD
:10004000AD0A0008AD0A0008AD0A0008AD0A0008B4
:10005000AD0A0008AD0A0008AD0A0008AD0A0008A4
:10006000AD0A0008AD0A0008AD0A0008AD0A000894
:10007000AD0A0008AD0A0008AD0A0008AD0A000884
:10008000AD0A0008AD0A0008AD0A0008AD0A000874
:10009000AD0A0008AD0A0008AD0A0008AD0A000864
:1000A000AD0A0008AD0A0008AD0A0008AD0A000854
:1000B000AD0A0008AD0A000800000000AD0A000803
:1000C000AD0A00080000000000000000AD0A0008B2
:1000D00000000000AD0A0008AD0A000800000000A2
:1000E000AD0A0008AD0A0008AD0A000800000000D3
:1000F0000000000000000000000000000000000000
:0C01000000000000000000005FF808F1A3
:10010C0010B5054C237833B9044B13B10448AFF345
:10011C0000800123237010BD0C00002000000000A3
:10012C00D418000808B5034B1BB103490348AFF3BF
:10013C00008008BD0000000010000020D41800084A
:10014C0080B500AF01221021214800F091FF01225F
:10015C0020211F4800F08CFF012240211C4800F098
:10016C0087FF012280211A4800F082FF01224FF400
:10017C008071174800F07CFF01224FF40071144885
:10018C0000F076FF01224FF48061114800F070FFFF
:10019C0001224FF400610E4800F06AFF01224FF477
:1001AC0080510B4800F064FF01224FF400510848C5
:1001BC0000F05EFF01224FF48041054800F058FF2B
:1001CC0001224FF40041024800F052FF00BF80BDF5
:1001DC000008014080B582B000AF00F063FC00F075
:1001EC0075FB00F0AFFB00237B607B680C2B03DD01
:1001FC0000237B60FFF7A4FF7B68013B0B2B00F215
:10020C00598301A252F823F045020008CF020008DE
:10021C0059030008E30300086D040008F704000804
:10022C00850500080F06000899060008230700083A
:10023C00AD0700083708000800221021CD4800F057
:10024C0017FF01222021CB4800F012FF0122402190
:10025C00C84800F00DFF01228021C64800F008FFBD
:10026C0001224FF48071C34800F002FF01224FF4C9
:10027C000071C04800F0FCFE01224FF48061BD48C3
:10028C0000F0F6FE01224FF40061BA4800F0F0FED7
:10029C0001224FF48051B74800F0EAFE01224FF4DE
:1002AC000051B44800F0E4FE01224FF48041B14803
:1002BC0000F0DEFE01224FF40041AE4800F0D8FE03
:1002CC00F9E201221021AB4800F0D2FE00222021DD
:1002DC00A84800F0CDFE01224021A64800F0C8FE3F
:1002EC0001228021A34800F0C3FE01224FF480714B
:1002FC00A04800F0BDFE01224FF400719D4800F0B3
:10030C00B7FE01224FF480619A4800F0B1FE012241
:10031C004FF40061974800F0ABFE01224FF480517E
:10032C00944800F0A5FE01224FF40051914800F0D2
:10033C009FFE01224FF480418E4800F099FE01226D
:10034C004FF400418B4800F093FEB4E201221021DF
:10035C00884800F08DFE01222021864800F088FE9E
:10036C0000224021834800F083FE01228021814835
:10037C0000F07EFE01224FF480717E4800F078FE82
:10038C0001224FF400717B4800F072FE01224FF401
:10039C008061784800F06CFE01224FF400617548D2
:1003AC0000F066FE01224FF48051724800F060FEAE
:1003BC0001224FF400516F4800F05AFE01224FF415
:1003CC0080416C4800F054FE01224FF40041694812
:1003DC0000F04EFE6FE201221021664800F048FE4C
:1003EC0001222021634800F043FE01224021614894
:1003FC0000F03EFE002280215E4800F039FE012212
:10040C004FF480715B4800F033FE01224FF4007111
:10041C00584800F02DFE01224FF48061554800F041
:10042C0027FE01224FF40061524800F021FE012208
:10043C004FF480514F4800F01BFE01224FF4005145
:10044C004C4800F015FE01224FF48041494800F061
:10045C000FFE01224FF40041464800F009FE2AE24B
:10046C0001221021434800F003FE012220214148C3
:10047C0000F0FEFD012240213E4800F0F9FD012272
:10048C0080213C4800F0F4FD00224FF48071394883
:10049C0000F0EEFD01224FF40071364800F0E8FD4B
:1004AC0001224FF48061334800F0E2FD01224FF449
:1004BC000061304800F0DCFD01224FF480512D48E2
:1004CC0000F0D6FD01224FF400512A4800F0D0FD77
:1004DC0001224FF48041274800F0CAFD01224FF45D
:1004EC000041244800F0C4FDE5E10122102121481F
:1004FC0000F0BEFD012220211E4800F0B9FD0122B2
:10050C0040211C4800F0B4FD01228021194800F064
:10051C00AFFD01224FF48071164800F0A9FD0022B6
:10052C004FF40071134800F0A3FD01224FF48061D9
:10053C00104800F09DFD01224FF400610D4800F0C1
:10054C0097FD01224FF480510A4800F091FD0122E1
:10055C004FF40051074800F08BFD01224FF480410D
:10056C00044800F085FD01224FF40041014800F0E1
:10057C007FFDA0E10008014001221021D24800F0CB
:10058C0077FD01222021D04800F072FD012240218C
:10059C00CD4800F06DFD01228021CB4800F068FDB4
:1005AC0001224FF48071C84800F062FD01224FF423
:1005BC000071C54800F05CFD00224FF48061C24818
:1005CC0000F056FD01224FF40061BF4800F050FDD1
:1005DC0001224FF48051BC4800F04AFD01224FF437
:1005EC000051B94800F044FD01224FF48041B64857
:1005FC0000F03EFD01224FF40041B34800F038FDFD
:10060C0059E101221021B04800F032FD01222021D5
:10061C00AD4800F02DFD01224021AB4800F028FD33
:10062C0001228021A84800F023FD01224FF48071A3
:10063C00A54800F01DFD01224FF40071A24800F006
:10064C0017FD01224FF480619F4800F011FD00223C
:10065C004FF400619C4800F00BFD01224FF48051D7
:10066C00994800F005FD01224FF40051964800F026
:10067C00FFFC01224FF48041934800F0F9FC012269
:10068C004FF40041904800F0F3FC14E101221021DA
:10069C008D4800F0EDFC012220218B4800F0E8FC95
:1006AC0001224021884800F0E3FC01228021864889
:1006BC0000F0DEFC01224FF48071834800F0D8FC7E
:1006CC0001224FF40071804800F0D2FC01224FF45B
:1006DC0080617D4800F0CCFC01224FF400617A4827
:1006EC0000F0C6FC00224FF48051774800F0C0FCAB
:1006FC0001224FF40051744800F0BAFC01224FF46F
:10070C008041714800F0B4FC01224FF400416E4866
:10071C0000F0AEFCCFE0012210216B4800F0A8FCE9
:10072C0001222021684800F0A3FC012240216648E8
:10073C0000F09EFC01228021634800F099FC01220C
:10074C004FF48071604800F093FC01224FF400716B
:10075C005D4800F08DFC01224FF480615A4800F096
:10076C0087FC01224FF40061574800F081FC012204
:10077C004FF48051544800F07BFC00224FF40051A0
:10078C00514800F075FC01224FF480414E4800F0B6
:10079C006FFC01224FF400414B4800F069FC8AE0E9
:1007AC0001221021484800F063FC01222021464818
:1007BC0000F05EFC01224021434800F059FC01226C
:1007CC008021414800F054FC01224FF480713E48D6
:1007DC0000F04EFC01224FF400713B4800F048FC45
:1007EC0001224FF48061384800F042FC01224FF4A2
:1007FC000061354800F03CFC01224FF48051324836
:10080C0000F036FC01224FF400512F4800F030FC70
:10081C0000224FF480412C4800F02AFC01224FF4B6
:10082C000041294800F024FC45E001221021264813
:10083C0000F01EFC01222021234800F019FC0122AB
:10084C004021214800F014FC012280211E4800F0B8
:10085C000FFC01224FF480711B4800F009FC0122AF
:10086C004FF40071184800F003FC01224FF4806132
:10087C00154800F0FDFB01224FF40061124800F016
:10088C00F7FB01224FF480510F4800F0F1FB0122DD
:10089C004FF400510C4800F0EBFB01224FF4804167
:1008AC00094800F0E5FB00224FF40041064800F037
:1008BC00DFFB00E000BF7B6801337B604FF47A7094
:1008CC0000F052F991E400BF0008014080B590B0EF
:1008DC0000AF07F1180328220021184600F0ECFFA6
:1008EC003B1D00221A605A609A60DA601A6102237A
:1008FC00BB610123BB621023FB6200237B6307F106
:10090C001803184600F0CCFB0346002B01D000F076
:10091C004DF80F237B600023BB600023FB6000239A
:10092C003B6100237B613B1D0021184600F03AFE21
:10093C000346002B01D000F039F800BF4037BD460C
:10094C0080BD000080B586B000AF07F1080300221F
:10095C001A605A609A60DA60124B9B69114A43F034
:10096C00040393610F4B9B6903F004037B607B686A
:10097C0000224FF6F0710C4800F07AFB4FF6F07342
:10098C00BB600123FB6000233B6102237B6107F109
:10099C0008031946044800F0EFF900BF1837BD46AC
:1009AC0080BD00BF001002400008014080B400AFC1
:1009BC0072B600BFFEE7000080B483B000AF0E4BF0
:1009CC009B690D4A43F0010393610B4B9B6903F048
:1009DC0001037B607B68084BDB69074A43F080535B
:1009EC00D361054BDB6903F080533B603B6800BF70
:1009FC000C37BD4680BC70470010024080B400AF7D
:100A0C00FEE780B400AFFEE780B400AFFEE780B431
:100A1C0000AFFEE780B400AFFEE780B400AF00BFCC
:100A2C00BD4680BC704780B400AF00BFBD4680BCE3
:100A3C00704780B400AF00BFBD4680BC704780B526
:100A4C0000AF00F075F800BF80BD80B400AF00BFF0
:100A5C00BD4680BC704700000C480D490D4A002370
:100A6C0002E0D458C4500433C4188C42F9D30A4A57
:100A7C000A4C002301E013600432A242FBD3FFF7BF
:100A8C00E4FF00F0F5FEFFF7A5FB70470000002027
:100A9C000C000020141900080C0000202C00002071
:100AAC00FEE7000080B500AF084B1B68074A43F017
:100ABC0010031360032000F02BF90F2000F008F84E
:100ACC00FFF77AFF0023184680BD00BF00200240CC
:100ADC0080B582B000AF7860124B1A68124B1B784D
:100AEC0019464FF47A73B3FBF1F3B2FBF3F31846E8
:100AFC0000F035F90346002B01D001230EE07B6892
:100B0C000F2B0AD8002279684FF0FF3000F00BF958
:100B1C00064A7B681360002300E00123184608375F
:100B2C00BD4680BD0000002008000020040000200D
:100B3C0080B400AF054B1B781A46054B1B68134459
:100B4C00034A136000BFBD4680BC704708000020FC
:100B5C002800002080B400AF024B1B681846BD462D
:100B6C0080BC70472800002080B584B000AF78604E
:100B7C00FFF7F0FFB8607B68FB60FB68B3F1FF3FE9
:100B8C0005D00A4B1B781A46FB681344FB6000BF68
:100B9C00FFF7E0FF0246BB68D31AFA689A42F7D80F
:100BAC0000BF00BF1037BD4680BD00BF080000204D
:100BBC0080B485B000AF78607B6803F00703FB60FE
:100BCC000C4BDB68BB60BA684FF6FF031340BB608D
:100BDC00FB681A02BB68134343F0BF6343F4003352
:100BEC00BB60044ABB68D36000BF1437BD4680BCF1
:100BFC00704700BF00ED00E080B400AF044BDB6831
:100C0C001B0A03F007031846BD4680BC704700BFA3
:100C1C0000ED00E080B483B000AF03463960FB7197
:100C2C0097F90730002B0ADB3B68DAB20C4997F9CD
:100C3C0007301201D2B20B4483F800230AE03B6860
:100C4C00DAB20849FB7903F00F03043B1201D2B26C
:100C5C000B441A7600BF0C37BD4680BC704700BFF2
:100C6C0000E100E000ED00E080B489B000AFF86076
:100C7C00B9607A60FB6803F00703FB61FB69C3F1A1
:100C8C000703042B28BF0423BB61FB690433062B29
:100C9C0002D9FB69033B00E000237B614FF0FF327C
:100CAC00BB6902FA03F3DA43BB681A407B699A40CA
:100CBC004FF0FF317B6901FA03F3D9437B680B409A
:100CCC00134318462437BD4680BC704780B582B0AC
:100CDC0000AF78607B68013BB3F1807F01D30123C7
:100CEC000FE00A4A7B68013B53600F214FF0FF3045
:100CFC00FFF790FF054B00229A60044B07221A6005
:100D0C00002318460837BD4680BD00BF10E000E048
:100D1C0080B582B000AF78607868FFF749FF00BFFC
:100D2C000837BD4680BD80B586B000AF0346B960BC
:100D3C007A60FB7300237B61FFF75EFF78617A6852
:100D4C00B9687869FFF790FF024697F90F301146A2
:100D5C001846FFF75FFF00BF1837BD4680BD80B552
:100D6C0082B000AF78607868FFF7B0FF0346184692
:100D7C000837BD4680BD000080B48BB000AF7860F2
:100D8C00396000237B6200233B6261E101227B6AB4
:100D9C0002FA03F3FB613B681B68FA691340BB6101
:100DAC00BA69FB699A4240F050813B685B68974A8C
:100DBC0093425ED0954A934275D8954A934258D047
:100DCC00934A93426FD8934A934252D0914A93429A
:100DDC0069D8914A93424CD08F4A934263D88F4A38
:100DEC00934246D08D4A93425DD8122B2AD8122BAF
:100DFC0059D801A252F823F07F0E0008590E0008B2
:100E0C006B0E0008AD0E0008B30E0008B30E000800
:100E1C00B30E0008B30E0008B30E0008B30E0008A2
:100E2C00B30E0008B30E0008B30E0008B30E000892
:100E3C00B30E0008B30E0008B30E0008610E0008D4
:100E4C00750E0008764A934213D02CE03B68DB68A1
:100E5C003B6229E03B68DB6804333B6224E03B687F
:100E6C00DB6808333B621FE03B68DB680C333B629A
:100E7C001AE03B689B68002B02D104233B6213E011
:100E8C003B689B68012B05D108233B627B68FA69A0
:100E9C001A6109E008233B627B68FA695A6103E036
:100EAC0000233B6200E000BFBB69FF2B01D87B68CD
:100EBC0001E07B6804337B61BB69FF2B02D87B6A42
:100ECC009B0002E07B6A083B9B003B617B691A68D4
:100EDC000F213B6901FA03F3DB431A40396A3B6982
:100EEC0001FA03F31A437B691A603B685B6803F0F1
:100EFC008053002B00F0A9804A4B9B69494A43F070
:100F0C0001039361474B9B6903F00103BB60BB6812
:100F1C00454A7B6A9B08023352F82330FB607B6A9C
:100F2C0003F003039B000F2202FA03F3DB43FA687E
:100F3C001340FB607B683D4A93420DD07B683C4A72
:100F4C00934207D07B683B4A934201D1022304E0D1
:100F5C00032302E0012300E000237A6A02F003027B
:100F6C0092009340FA681343FB602F497B6A9B08FD
:100F7C000233FA6841F823203B685B6803F4803342
:100F8C00002B06D02C4B1A682B49BB6913430B6002
:100F9C0006E0294B1A68BB69DB43274913400B60F9
:100FAC003B685B6803F40033002B06D0224B5A6875
:100FBC002149BB6913434B6006E01F4B5A68BB6960
:100FCC00DB431D4913404B603B685B6803F48013A3
:100FDC00002B06D0184B9A681749BB6913438B60DA
:100FEC0006E0154B9A68BB69DB43134913408B60D1
:100FFC003B685B6803F40013002B1FD00E4BDA68C0
:10100C000D49BB691343CB601FE000BF00003210D9
:10101C0000003110000022100000211000001210FE
:10102C0000001110001002400000014000080140B7
:10103C00000C014000100140000401400B4BDA6829
:10104C00BB69DB4309491340CB607B6A01337B628C
:10105C003B681A687B6A22FA03F3002B7FF496AE86
:10106C0000BF00BF2C37BD4680BC70470004014058
:10107C0080B483B000AF78600B467B8013467B70E6
:10108C007B78002B03D07A887B681A6103E07B881D
:10109C001A047B681A6100BF0C37BD4680BC7047D0
:1010AC0080B586B000AF78607B68002B01D101233E
:1010BC0072E27B681B6803F00103002B00F0878051
:1010CC00924B5B6803F00C03042B0CD08F4B5B68CA
:1010DC0003F00C03082B12D18C4B5B6803F48033A8
:1010EC00B3F5803F0BD1894B1B6803F40033002B05
:1010FC006CD07B685B68002B68D101234CE27B6869
:10110C005B68B3F5803F06D1804B1B687F4A43F484
:10111C00803313602EE07B685B68002B0CD17B4B1B
:10112C001B687A4A23F480331360784B1B68774A28
:10113C0023F4802313601DE07B685B68B3F5A02F5C
:10114C000CD1724B1B68714A43F4802313606F4BB4
:10115C001B686E4A43F4803313600BE06B4B1B68C7
:10116C006A4A23F480331360684B1B68674A23F484
:10117C00802313607B685B68002B13D0FFF7EAFCBD
:10118C00386108E0FFF7E6FC02463B69D31A642B92
:10119C0001D9032300E25D4B1B6803F40033002BE1
:1011AC00F0D014E0FFF7D6FC386108E0FFF7D2FC72
:1011BC0002463B69D31A642B01D90323ECE1534B50
:1011CC001B6803F40033002BF0D100E000BF7B68F8
:1011DC001B6803F00203002B63D04C4B5B6803F0DD
:1011EC000C03002B0BD0494B5B6803F00C03082B52
:1011FC001CD1464B5B6803F48033002B16D1434B58
:10120C001B6803F00203002B05D07B681B69012BC4
:10121C0001D00123C0E13D4B1B6823F0F8027B6831
:10122C005B69DB00394913430B603AE07B681B694F
:10123C00002B20D0364B01221A60FFF78BFC386153
:10124C0008E0FFF787FC02463B69D31A022B01D951
:10125C000323A1E12D4B1B6803F00203002BF0D0FC
:10126C002A4B1B6823F0F8027B685B69DB0027497B
:10127C0013430B6015E0264B00221A60FFF76AFC43
:10128C00386108E0FFF766FC02463B69D31A022B73
:10129C0001D9032380E11D4B1B6803F00203002BD3
:1012AC00F0D17B681B6803F00803002B3AD07B68F5
:1012BC009B69002B19D0174B01221A60FFF74AFCCF
:1012CC00386108E0FFF746FC02463B69D31A022B53
:1012DC0001D9032360E10D4B5B6A03F00203002B81
:1012EC00F0D0012000F0A6FA1CE00A4B00221A6094
:1012FC00FFF730FC38610FE0FFF72CFC02463B692E
:10130C00D31A022B08D9032346E100BF0010024078
:10131C000000424280044242924B5B6A03F002039B
:10132C00002BE9D17B681B6803F00403002B00F051
:10133C00A6800023FB758B4BDB6903F08053002BDD
:10134C000DD1884BDB69874A43F08053D361854BC1
:10135C00DB6903F08053BB60BB680123FB75824BD8
:10136C001B6803F48073002B18D17F4B1B687E4ADB
:10137C0043F480731360FFF7EDFB386108E0FFF76F
:10138C00E9FB02463B69D31A642B01D9032303E121
:10139C00754B1B6803F48073002BF0D07B68DB6803
:1013AC00012B06D16F4B1B6A6E4A43F0010313628B
:1013BC002DE07B68DB68002B0CD16A4B1B6A694AF9
:1013CC0023F001031362674B1B6A664A23F0040384
:1013DC0013621CE07B68DB68052B0CD1614B1B6A2C
:1013EC00604A43F0040313625E4B1B6A5D4A43F090
:1013FC00010313620BE05B4B1B6A5A4A23F0010397
:10140C001362584B1B6A574A23F0040313627B6820
:10141C00DB68002B15D0FFF79DFB38610AE0FFF766
:10142C0099FB02463B69D31A41F28832934201D9A7
:10143C000323B1E04B4B1B6A03F00203002BEED0ED
:10144C0014E0FFF787FB38610AE0FFF783FB0246E5
:10145C003B69D31A41F28832934201D903239BE0B2
:10146C00404B1B6A03F00203002BEED1FB7D012BDA
:10147C0005D13C4BDB693B4A23F08053D3617B683D
:10148C00DB69002B00F08780364B5B6803F00C03A4
:10149C00082B61D07B68DB69022B46D1334B0022D1
:1014AC001A60FFF757FB386108E0FFF753FB024661
:1014BC003B69D31A022B01D903236DE0294B1B681E
:1014CC0003F00073002BF0D17B681B6AB3F5803FEF
:1014DC0008D1244B5B6823F400327B689B6821495C
:1014EC0013434B601F4B5B6823F474127B68196ABF
:1014FC007B685B6A0B431B4913434B601B4B0122FC
:10150C001A60FFF727FB386108E0FFF723FB024660
:10151C003B69D31A022B01D903233DE0114B1B6805
:10152C0003F00073002BF0D035E0104B00221A6052
:10153C00FFF710FB386108E0FFF70CFB02463B6934
:10154C00D31A022B01D9032326E0064B1B6803F0A8
:10155C000073002BF0D11EE07B68DB69012B07D1F7
:10156C00012319E00010024000700040600042426C
:10157C000B4B5B68FB60FB6803F480327B681B6A77
:10158C009A4206D1FB6803F470127B685B6A9A423C
:10159C0001D0012300E0002318461837BD4680BD5A
:1015AC000010024080B584B000AF786039607B6871
:1015BC00002B01D10123D0E06A4B1B6803F0070319
:1015CC003A689A4210D9674B1B6823F007026549A9
:1015DC003B6813430B60634B1B6803F007033A68CB
:1015EC009A4201D00123B8E07B681B6803F0020328
:1015FC00002B20D07B681B6803F00403002B05D064
:10160C00594B5B68584A43F4E06353607B681B6832
:10161C0003F00803002B05D0534B5B68524A43F48C
:10162C0060535360504B5B6823F0F0027B689B68FF
:10163C004D4913434B607B681B6803F00103002B7F
:10164C0040D07B685B68012B07D1474B1B6803F4C8
:10165C000033002B15D101237FE07B685B68022BE4
:10166C0007D1414B1B6803F00073002B09D10123F8
:10167C0073E03D4B1B6803F00203002B01D10123E7
:10168C006BE0394B5B6823F003027B685B6836497F
:10169C0013434B60FFF75EFAF8600AE0FFF75AFA63
:1016AC000246FB68D31A41F28832934201D90323D4
:1016BC0053E02D4B5B6803F00C027B685B689B006E
:1016CC009A42EBD1274B1B6803F007033A689A4206
:1016DC0010D2244B1B6823F0070222493B681343AA
:1016EC000B60204B1B6803F007033A689A4201D049
:1016FC00012332E07B681B6803F00403002B08D045
:10170C00194B5B6823F4E0627B68DB681649134372
:10171C004B607B681B6803F00803002B09D0124B4D
:10172C005B6823F460527B681B69DB000E49134332
:10173C004B6000F021F802460B4B5B681B0903F071
:10174C000F030A49CB5C22FA03F3094A1360094BD5
:10175C001B681846FFF7BCF9002318461037BD4626
:10176C0080BD00BF0020024000100240FC180008A1
:10177C00000000200400002090B48AB000AF294B78
:10178C003C1D0FCB84E80F0040F201233B8000236B
:10179C00FB610023BB6100237B6200237B61002380
:1017AC003B62214B5B68FB61FB6903F00C03042B70
:1017BC0002D0082B03D02BE01C4B3B622BE0FB69C7
:1017CC009B0C03F00F0328333B4413F8243C7B6140
:1017DC00FB6903F48033002B12D0134B5B685B0C5A
:1017EC0003F0010328333B4413F8283CBB617B69AD
:1017FC000E4A03FB02F2BB69B2FBF3F37B6204E01B
:10180C007B690B4A02FB03F37B627B6A3B6202E05F
:10181C00064B3B6200BF3B6A18462837BD4690BC5E
:10182C00704700BFEC1800080010024000127A004C
:10183C0000093D0080B485B000AF78600A4B1B688E
:10184C000A4AA2FB03235B0A7A6802FB03F3FB60E0
:10185C0000BFFB685A1EFA60002BF9D100BF00BF15
:10186C001437BD4680BC704700000020D34D621079
:10187C0070B500260C4D0D4C641BA410A64209D16A
:10188C0000F022F800260A4D0A4C641BA410A64254
:10189C0005D170BD55F8043B98470136EEE755F875
:1018AC00043B98470136F2E70C1900080C190008A4
:1018BC000C1900081019000803460244934200D189
:1018CC00704703F8011BF9E7F8B500BFF8BC08BC7A
:1018DC009E467047F8B500BFF8BC08BC9E467047E2
:1018EC0002030405060708090A0B0C0D0E0F101055
:1018FC0000000000000000000102030406070809B4
:04190C00310100089D
:041910000D010008BD
:0C1914000024F40010000000010000009E
:0400000508000A6580
:00000001FF
